:1000000003C1000016C1000014C1000012C10000AD
:1000100010C100000EC100000CC100000AC10000A8
:1000200008C1000006C1000004C1000002C10000B8
:1000300000C10000FEC00000FCC00000FAC00000CB
:10004000F8C00000F6C00000F4C00000F2C00000DC
:10005000F0C00000EEC00000ECC00000EAC00000EC
:10006000E8C00000E6C00000E4C00000E2C00000FC
:10007000E0C00000DEC00000DCC00000DAC000000C
:10008000D8C00000D6C00000D4C0000007634236CC
:10009000B79BD8A71A39685618AEBAAB558C1D3C19
:1000A000B7CC5763BD6DEDFD753EF6177231BF00DD
:1000B0000000803F08000000BE922449123EABAA17
:1000C000AA2ABECDCCCC4C3E00000080BEABAAAA72
:1000D000AA3E00000000BF000000803F00000000BA
:1000E00000084178D3BB4387D1133D190E3CC3BDF3
:1000F0004282AD2B3E68EC8276BED98FE1A93E4CA0
:1001000080EFFFBE01C4FF7F3F0000000000004001
:100110007A10F35A00A0724E18090010A5D4E80016
:1001200000E87648170000E40B54020000CA9A3B2E
:10013000000000E1F50500008096980000004042B4
:100140000F000000A0860100000010270000000042
:10015000E803000000006400000000000A00000046
:1001600000000100000000002C76D888DC674F08F2
:1001700023DFC1DFAE59E1B1B796E5E3E453C63AF8
:10018000E651997696E8E6C28426EB898C9B62ED6F
:10019000407C6FFCEFBC9C9F40F2BAA56FA5F49029
:1001A000055A2AF75C936B6CF9676DC11BFCE0E4A0
:1001B0000D47FEF520E6B500D0ED902E03009435F6
:1001C00077050080841E080000204E0A000000C849
:1001D0000C333333330F986E12831141EF8D21149A
:1001E000893BE65516CFFEE6DB18D1844B381BF76A
:1001F0007C1D901DA4BBE424203284725E22810009
:10020000C9F124ECA1E53D2711241FBECFEFD0E4B6
:10021000DEBFCDBF11E0A0E0B1E0EEE8F1E100E02B
:100220000BBF02C007900D92AE30B107D9F78BD04B
:10023000ACC7E6CE1092B8001092B900ECEBF0E03B
:10024000808184608083089584EA8093BC00ECEB15
:10025000F0E080818823ECF7089584E98093BC0066
:10026000ECEBF0E0808184FDFDCF08958093BB002E
:1002700084E88093BC00ECEBF0E080818823ECF70D
:100280008091B900887F883169F08091B900887FBA
:10029000883251F09091B900987F81E0903429F034
:1002A00080E0089581E0089581E00895DC016623EF
:1002B00031F0ECEBF0E090819064908305C0ECEBC2
:1002C000F0E090819F7B9083ECEBF0E09081906870
:1002D000908390819923ECF79091B900987F98359D
:1002E00029F09091B900987F903529F48091BB0056
:1002F0008C9381E0089580E008950F931F93CF932E
:100300008C01C62FA1DF82E7B1DF882389F08C2F13
:10031000ADDF882379F098DF83E7A8DF882361F0D9
:1003200060E0C801C3DF882349F097DF81E007C0A0
:1003300080E005C080E003C080E001C080E0CF9194
:100340001F910F910895CF93DF93CDB7DEB72B9711
:100350000FB6F894DEBF0FBECDBF82E08AB92FEF93
:1003600089E698E1215080409040E1F700C000000C
:1003700013D160DF69DF82E779DF83E077DF6DDF4C
:100380002FEF80E792E0215080409040E1F700C0DD
:1003900000006CE8CE010296B0DF6DE8CE01019658
:1003A000ACDF2FEF80E792E0215080409040E1F7F2
:1003B00000C000006EE8CE0104969FDF6FE8CE011A
:1003C00003969BDF698170E0762F66278A81680F2C
:1003D000711D072E000C880B990BD7D16B017C0186
:1003E0008B8190E0982F88272C81820F911DBC0172
:1003F000990F880B990BC9D12B013C01A7019601DC
:100400005AD14B015C0120E030E0A9016ED21816F0
:100410005CF520E030E040E05FE3C501B40147D186
:10042000181614F123E333E343EB5FE3C501B40192
:10043000C3D22B013C012CE639E049EF5CE3C70154
:10044000B60157D24B015C0126EB33EF4DE75DE37C
:10045000C701B6014ED2A30192014BD29B01AC0160
:10046000C501B401BFD07FC020E030E040E05FE3D1
:10047000C501B4013AD21816FCF426EF38E24CE17B
:100480005FE3C501B40113D11816B4F024E330E8DA
:1004900047EB5CE3C701B6012CD26B017C0126EB74
:1004A00033EF4DEF5CE3C301B20123D29B01AC01FA
:1004B000C701B60197D057C026EF38E24CE15FE3A1
:1004C000C501B40112D21816FCF42DEC3CEC4CE43E
:1004D0005FE3C501B401EBD01816B4F027E137EBA8
:1004E00041E55CE3C701B60104D26B017C012AED52
:1004F0003CEA4AE75CE3C301B201FBD19B01AC01DA
:10050000C701B6016FD02FC02DEC3CEC4CE45FE38B
:10051000C501B401EAD11816FCF426E636E646EA2F
:100520005FE3C501B401C3D01816D4F029E73DE557
:100530004FEB5AE3C701B601DCD16B017C0127EF19
:100540003CEC42E95AE3C301B201D3D19B01AC01B7
:10055000C701B60147D007C060E070E0CB0103C01F
:1005600060E070E0CB018E010B5F1F4F23E044E0A1
:1005700088D380E091E028D0C80126D08DE01CD03F
:100580008AE01AD02FEF89E698E121508040904010
:10059000E1F700C00000F4CE1092CD0083E3809319
:1005A000CC001092C800E9ECF0E0108286E880935D
:1005B000CA0088E980830895E8ECF0E0908195FF17
:1005C000FDCF8093CE000895CF93DF93EC01888117
:1005D000882329F02196F0DF89918111FCCFDF91EA
:1005E000CF9108955058BB27AA270ED044C135D1CA
:1005F00030F03AD120F031F49F3F11F41EF42AC1BB
:100600000EF4E095E7FB20C1E92F46D180F3BA173D
:10061000620773078407950718F071F49EF55EC1B1
:100620000EF4E0950B2EBA2FA02D0B01B90190010D
:100630000C01CA01A0011124FF27591B99F0593F51
:1006400050F4503E68F11A16F040A22F232F342F99
:100650004427585FF3CF469537952795A795F040E7
:100660005395C9F77EF41F16BA0B620B730B840BFC
:10067000BAF09150A1F0FF0FBB1F661F771F881FB4
:10068000C2F70EC0BA0F621F731F841F48F487950C
:1006900077956795B795F7959E3F08F0B3CF9395FB
:1006A000880F08F09927EE0F979587950895A8D0A1
:1006B00008F481E008950CD0DEC0D6D040F0CDD053
:1006C00030F021F45F3F19F0BFC0511108C1C2C022
:1006D000E3D098F39923C9F35523B1F3951B550B38
:1006E000BB27AA2762177307840738F09F5F5F4F05
:1006F000220F331F441FAA1FA9F333D00E2E3AF046
:10070000E0E830D091505040E695001CCAF729D05F
:10071000FE2F27D0660F771F881FBB1F26173707AE
:100720004807AB07B0E809F0BB0B802DBF01FF27DE
:1007300093585F4F2AF09E3F510568F085C0CFC0A7
:100740005F3FECF3983EDCF3869577956795B79518
:10075000F7959F5FC9F7880F911D9695879597F933
:100760000895E1E0660F771F881FBB1F62177307AC
:100770008407BA0720F0621B730B840BBA0BEE1FC1
:1007800088F7E0950895E89409C097FB3EF49095AA
:100790008095709561957F4F8F4F9F4F9923A9F05A
:1007A000F92F96E9BB279395F695879577956795E9
:1007B000B795F111F8CFFAF4BB0F11F460FF1BC02D
:1007C0006F5F7F4F8F4F9F4F16C0882311F096E9C0
:1007D00011C0772321F09EE8872F762F05C066236E
:1007E00071F096E8862F70E060E02AF09A95660F27
:1007F000771F881FDAF7880F9695879597F90895E0
:10080000990F0008550FAA0BE0E8FEEF1616170621
:10081000E807F907C0F012161306E407F50798F089
:10082000621B730B840B950B39F40A2661F0232BA2
:10083000242B252B21F408950A2609F4A140A6951E
:100840008FEF811D811D089597F99F6780E870E003
:1008500060E008959FEF80EC089500240A94161636
:10086000170618060906089500240A94121613069E
:10087000140605060895092E0394000C11F488232C
:1008800052F0BB0F40F4BF2B11F460FF04C06F5F48
:100890007F4F8F4F9F4F089557FD9058440F551F1E
:1008A00059F05F3F71F04795880F97FB991F61F0F2
:1008B0009F3F79F087950895121613061406551F69
:1008C000F2CF4695F1DF08C0161617061806991FD5
:1008D000F1CF86957105610508940895E894BB27CA
:1008E00066277727CB0197F908958ADF08F48FEF01
:1008F00008950BD0C0CFB1DF28F0B6DF18F09523F4
:1009000009F0A2CFA7CF1124EACFC6DFA0F3959FAD
:10091000D1F3950F50E0551F629FF001729FBB27E6
:10092000F00DB11D639FAA27F00DB11DAA1F649F92
:100930006627B00DA11D661F829F2227B00DA11D45
:10094000621F739FB00DA11D621F839FA00D611DCB
:10095000221F749F3327A00D611D231F849F600DEC
:10096000211D822F762F6A2F11249F5750408AF025
:10097000E1F088234AF0EE0FFF1FBB1F661F771FB1
:10098000881F91505040A9F79E3F510570F05CCFF1
:10099000A6CF5F3FECF3983EDCF38695779567959D
:1009A000B795F795E7959F5FC1F7FE2B880F911DCF
:1009B0009695879597F90895FA01EE0FFF1F3096E7
:1009C0002105310599F16115710561F48038BFE3A6
:1009D0009B0749F168949038810561F08038BFEF3A
:1009E0009B0741F0992342F5FF3FE10531052105C1
:1009F00011F1E8940894E795D901AA2329F4AB2FC3
:100A0000BE2FF85FD0F310C0FF5F70F4A695E0F73B
:100A1000F73950F019F0FF3A38F49F779F930CD0D4
:100A20000F9007FC905808953EF014CF60E070E0FE
:100A300080E89FE308954FE79F775F934F933F933D
:100A40002F939ED02F913F914F915F9152DF05C020
:100A500019F40EF0F9CE42CFFDCE26DFC8F396385A
:100A6000C0F707F80F92E8942BE33AEA48EB5FE708
:100A70004EDF0F920F920F924DB75EB70F92C0D01C
:100A8000ECE8F0E016D04F915F91EF91FF91E59582
:100A9000EE1FFF1F49F0FE57E0684427EE0F441F8A
:100AA000FA95E1F74195550B32D00F9007FE26C01D
:100AB0000895DF93CF931F930F93FF92EF92DF92EE
:100AC0007B018C01689405C0DA2EEF011EDFFE0168
:100AD000E894A5912591359145915591AEF3EF019B
:100AE00093DDFE019701A801DA9479F7DF90EF908A
:100AF000FF900F911F91CF91DF9108959B01AC0161
:100B000060E070E080E89FE3D6CD9ECEACC0CCDE46
:100B1000E8F39923D9F3940F511DBBF39150504042
:100B200094F059F0882332F0660F771F881F915098
:100B30005040C1F79E3F510544F7880F911D96958F
:100B4000879597F908955F3FACF0983E9CF0BB27DE
:100B5000869577956795B79508F4B1609395C1F739
:100B6000BB0F58F711F460FFE8CF6F5F7F4F8F4FD7
:100B70009F4FE3CFB4CE0EF076C06CCE689464CEB7
:100B800093DEC8F39923D1F3C6F3DF93CF931F937A
:100B90000F93FF92C92FDD2788232AF02197660F34
:100BA000771F881FDAF720E030E040E85FEB9FE333
:100BB000883920F0803E30F021968F7714DDE4EB09
:100BC000F0E003C010DDE1EEF0E073DF8B01BE0169
:100BD000EC01FB2E6F5771097595771F880B990BE8
:100BE000D4DD28E132E741E35FE38FDEAF2D9801EA
:100BF000AE01FF900F911F91CF91DF9105DD3BCEAC
:100C0000FA01DC01AA0FBB1F9B01AC01BF5728F4FE
:100C100022273327442750781FC0B75188F4AB2FC1
:100C20000024469537952795011CA395D2F3002003
:100C300069F0220F331F441FB395DAF30DD0D2CCE5
:100C400061307105A0E88A07B94630F49B01AC0118
:100C50006627772788279078309621F02083318384
:100C60004283538308959F3F31F0915020F487953C
:100C700077956795B795880F911D9695879597F904
:100C80000895EF920F931F93CF93DF93E80147FDF1
:100C900002C034E001C034E1E42F440FFF0BF7FF42
:100CA00003C0F195E195F109E32E022F2E2FAE013D
:100CB00007D0CE01DF91CF911F910F91EF90089552
:100CC0004F925F926F927F929F92AF92BF92CF921C
:100CD000DF92EF92FF920F931F93CF93DF93CDB7E5
:100CE000DEB729970FB6F894DEBF0FBECDBF6A01FD
:100CF000122FB02E2BE3201720F0FF24F394F00ED8
:100D000002C0BCE3FB2E0F2D27E0AE014F5F5F4F0B
:100D100064D1AC018981982F9970913031F0E1FC58
:100D200006C0E0FE06C090E205C09DE203C09BE263
:100D300001C090E0EE2DE07183FF3CC0911102C034
:100D400083E001C084E0811718F4212F281B01C023
:100D500020E0E1110BC0F601822F30E2882319F068
:100D600031938150FBCFC20ED11C20E0992329F092
:100D7000D6019C93F60131966F01C6010396E2FEFF
:100D80000AC03EE4D6013C9341E411964C9311977E
:100D900012963C9306C03EE6F601308341E641835D
:100DA0003283FC01322F40E2332309F442C04193E5
:100DB0003150FACF82FF44C0911102C083E001C0DC
:100DC00084E0811718F4212F281B01C020E0E111D5
:100DD0000BC0F601822F30E2882319F03193815045
:100DE000FBCFC20ED11C20E0992329F0D6019C93A1
:100DF000F60131966F01C6010396E2FE0BC039E49D
:100E0000D6013C933EE411963C93119736E412963A
:100E10003C9307C039E6F60130833EE6318336E67F
:100E20003283FC01322F40E2332319F041933150D9
:100E3000FBCFFC01E20FF11D10828EEF9FEFB7C0D8
:100E4000F1E0911101C0F0E06F2F70E0141615066B
:100E500024F49A012F5F3F4F02C021E030E0260FBB
:100E6000371FBB2029F06B2D70E06F5F7F4F02C0F2
:100E700060E070E0260F371F612F70E026173707FC
:100E80001CF4121B212F01C020E03E2D387159F4B3
:100E9000D601322F60E2332319F06D933150FBCF2E
:100EA000C20ED11C20E0FF2331F0D6019C93B60185
:100EB0006F5F7F4F6B01E1110BC0F601922F30E3A2
:100EC000992319F031939150FBCFC20ED11C20E031
:100ED0009F2D940F3A81782F7071A72E84FF03C045
:100EE000313309F49150191624F4993018F098E030
:100EF00001C091E0E42F852F57FF02C0E0E080E0C1
:100F00006E2F782FE0E0F0E0AEE29A2E3A01691AF7
:100F100071082A01461A570A0B2D10E01195019508
:100F200011096F3F8FEF780729F4D6019C92C60113
:100F300001966C014617570784F0661677066CF425
:100F40007F01E40CF51CA1E0B0E0AC0FBD1FEA0E80
:100F5000FB1ED7011196BC9002C090E3B92E6150E0
:100F600071093196C60101967C016017710724F062
:100F7000D601BC926C01D5CF6417750741F43633A6
:100F800020F4353321F4A11002C081E3B82EF6011C
:100F9000B082F701822F90E2882319F0919381505B
:100FA000FBCFF701E20FF11D108280E090E029965F
:100FB0000FB6F894DEBF0FBECDBFDF91CF911F916A
:100FC0000F91FF90EF90DF90CF90BF90AF909F90E8
:100FD0007F906F905F904F900895283008F027E041
:100FE0003327DA01990F311D87FD91600096610565
:100FF000710539F432602E5F3D9330E32A95E1F7B5
:1010000008959F3F30F080387105610509F03C5F1D
:101010003C5F3D93913008F08068911DDF93CF9342
:101020001F930F93FF92EF92192F987F9695E92FB8
:1010300096959695E90FFF27E859FE4F9927332794
:10104000EE24FF24A701E70105900894079428F4F3
:10105000360FE71EF81E491F511D660F771F881FA8
:10106000991F0694A1F70590079428F4E70EF81E3F
:10107000491F561FC11D770F881F991F661F0694B1
:10108000A1F70590079428F4F80E491F561FC71FB3
:10109000D11D880F991F661F771F0694A1F7059031
:1010A000079420F4490F561FC71FD81F990F661FBA
:1010B000771F881F0694A9F784911095177041F047
:1010C000D695C79557954795F794E7941A95C1F724
:1010D000EEE0F1E068941590159135916591959148
:1010E00005907FE27395E118F10A430B560BC90B8B
:1010F000D009C0F7E10CF11E431F561FC91FD01DB8
:101100007EF4703311F48A95E6CFE894015030F004
:10111000080F0AF40027021708F4202F2395022F46
:101120007A3328F079E37D932A95E9F710C07D930F
:101130002A9589F60694979567953795179517948C
:10114000E118F10A430B560BC90BD00998F023950F
:101150007E9173957A3308F070E37C932013B8F78F
:101160007E9170617D9330F0839571E37D9370E3A0
:101170002A95E1F71124EF90FF900F911F91CF91E5
:0E118000DF91992787FD90950895F894FFCF91
:0E118E00497272616469616E6365203A2000E7
:00000001FF
